:100000006F70E06213000000130000001300000096
:100010001300000013000000130000001300000094
:100020001300000013000000130000001300000084
:08003000130000007300100032
:100038000000000000000000E2740000F2740000FC
:1000480000000000747500000000000000000000BF
:1000580076750000787500000000000000000000C0
:100068007A750000000000007C75000000000000A8
:100078007E750000807500008275000084750000A0
:100088008675000088750000AC6700006068000095
:1000980014690000C86900007C6A000094750000BB
:1000A80096750000987500009A7500009C75000010
:1000B8009E750000A0750000A2750000A4750000E0
:1000C800A6750000A8750000AA750000306B000036
:1000D800AE7500007A6D0000B2750000B4750000BE
:1000E8003A6E0000F26E0000B26F0000BC750000AE
:1000F800BE750000C0750000C2750000C475000020
:10010800C6750000B86000007C6100004062000015
:10011800486C0000D0750000D2750000D47500004E
:10012800AA720000D8750000DA750000DC750000BE
:10013800DE750000E075000072700000E4750000D4
:1001480008630000CC63000032710000EA7100000F
:10015800EE750000F0750000F2750000F4750000FF
:10016800F6750000F8750000FA750000FC750000CF
:10017800FE75000000760000027600008086000010
:100188000676000008760000DC6600008E64000039
:10019800526500001C660000127600006A730000B9
:1001A80016760000187600001A7600002A740000FF
:1001B8001E760000207600002276000024760000DB
:1001C80026760000287600002A7600002C760000AB
:1001D8000000000000000000000000000000000017
:1001E8000000000000000000000000000000000007
:0801F8000000000000000000FF
:100200003D432A876373C3029377F700BDEFADE5E3
:10021000937606FF3D8ABA960CC34CC30CC74CC7F5
:100220004107E36BD7FE11E28280B306C3408A0622
:100230009702000096966780A6002307B700A306E2
:10024000B7002306B700A305B7002305B700A30432
:10025000B7002304B700A303B7002303B700A3022A
:10026000B7002302B700A301B7002301B700A30022
:10027000B7002300B700828093F5F50F93968500B1
:10028000D58D93960501D58D61B79396270097027A
:10029000000096968682E78086FA9680C1171D8FA9
:1002A0003E96E374C3F8A5B7011122CE00102326B1
:1002B000A4FE37F500E08328450037F500E093F809
:1002C000E8FF2322150183A801820965130505F4BF
:1002D00033D5A802AA8601470325C4FEAA87014890
:1002E00037F500E03303F702B308D8029A98338356
:1002F000F60233B6F6029A85B387C8003E860CC96B
:1003000050C9B7F700E09843B7F700E0136707015B
:1003100098C3B7F700E09843B7F700E013671702F8
:1003200098C30100B7F700E0DC4313F717008547D7
:10033000E31AF7FEB7F700E09843B7F700E0799BC0
:1003400098C30100724405618280011122CE001021
:100350002326A4FE37F500E08328450037F500E0AA
:1003600093F8E8FF2322150183A8018237157A004C
:100370001305052033D5A802AA8601470325C4FE2C
:10038000AA87014837F500E03303F702B308D80223
:100390009A983383F60233B6F6029A85B387C8007B
:1003A0003E860CC950C9B7F700E09843B7F700E0A4
:1003B0001367070198C3B7F700E09843B7F700E069
:1003C0001367170298C30100B7F700E0DC4313F787
:1003D00017008547E31AF7FEB7F700E09843B7F731
:1003E00000E0799B98C3010072440561828001118D
:1003F00006CE22CC0010AA8E2E8E32833685BA8588
:100400003E86C2864687F687A307F4FEF287230757
:10041000F4FE9A87A306F4FEAA872306F4FEAE87AD
:10042000A305F4FEB2872305F4FEB687A304F4FE09
:10043000BA872304F4FE8347F4FE93068004014642
:1004400081453E85D5228347E4FE9306800401461C
:1004500081453E85D12A8347D4FE93068004014618
:1004600081453E85D1228347C4FE93068004014620
:1004700081453E85552A8347B4FE93068004014694
:1004800081453E8555228347A4FE9306800401469C
:1004900081453E85512A834794FE93068004014698
:1004A00081453E855122834784FE930680040146A0
:1004B00081453E85952A8347440093068004014682
:1004C00081453E85952283470400930680040146BA
:1004D00081453E85912A8347840093068004014626
:1004E00081453E8591220100F2406244056182808F
:1004F000011106CE22CC00102326A4FE2324B4FE34
:10050000B28736872313F4FEBA872312F4FE85459B
:100510000965EF704074B70705500D472380E70069
:10052000B70705500547A380E700B70705500357F5
:1005300044FE2392E700B7070550035764FE239358
:10054000E700B70705500327C4FE98C7B707055053
:10055000032784FED8C7B707055011472381E7005A
:10056000814513056005EF50302B13056005EF50F2
:10057000F0260100F240624405618280011122CE22
:1005800000102326A4FE8327C4FE958313F777006B
:10059000B70700200A0793870704BA979C439C4734
:1005A0000327C4FE7D8B85463397E600F98FB3376A
:1005B000F00093F7F70F3E857244056182807971F0
:1005C00022D60018232EA4FC8327C4FD958393F71D
:1005D000F70F9D8BA307F4FE8327C4FD93F7F70F56
:1005E000FD8B2307F4FE0347F4FEB70700200A073C
:1005F00093870704BA979C43D8478347E4FE854610
:10060000B397F600C207C1833E868346F4FEB70760
:1006100000208A0693870704B6979C43318FD8C77A
:100620000100325445618280797106D622D40018C7
:10063000232EA4FC232CB4FCB2872328D4FCA30BC8
:10064000F4FC232004FE232204FE232404FE83273B
:10065000C4FD958393F7F70F9D8BA307F4FE8327C3
:10066000C4FD93F7F70FFD8B2307F4FE8347F4FED9
:1006700091E785451145EF70606291A80347F4FE4C
:1006800085476317F70085452145EF70206181A0FC
:100690000347F4FE89476317F70085454145EF702E
:1006A000E05F35A00347F4FE8D476318F7008545EA
:1006B00013050002EF70805E19A80347F4FE91470E
:1006C0006317F700854513050004EF70205D83472D
:1006D000E4FE0547B317F700C207C1832310F4FEF9
:1006E000032784FD85476317F702832704FDC207AC
:1006F000C183A183C207C18389E78D472322F4FE0A
:1007000011A8832704FDC207C183A183C207C18347
:100710002322F4FE832704FDC207C18393F7F70F5A
:100720002324F4FE0347F4FEB70700200A0793874B
:100730000704BA979C43130704FEBA853E85EF6011
:10074000107F032784FD85476319F7020347F4FEF2
:10075000B70700200A0793870704BA979443834793
:10076000E4FE0547B317F700C207C183034774FDD2
:100770003A86BE853685EF70201E0100B2502254A5
:1007800045618280797106D622D40018232EA4FCFC
:100790008327C4FDB337F00093F7F70F3E871306A6
:1007A0001004C1679385479E3A85EF30B0038327D5
:1007B000C4FD9C43BD8B0547B317F7009396070113
:1007C000C1828327C4FD9C4313D75700B70700207D
:1007D0000A0793870704BA979C43368798CB8327E9
:1007E000C4FDDC43BD8B0547B317F70093960701A3
:1007F000C1828327C4FDDC4313D75700B70700200D
:100800000A0793870704BA979C43368798CB8327B8
:10081000C4FDDC472326F4FE01008327C4FE1387B2
:10082000F7FF2326E4FEF5FB8327C4FDDC43BD8BE5
:100830000547B317F70093960701C1828327C4FDCC
:10084000DC4313D75700B70700200A079387070434
:10085000BA979C433687D8CB8327C4FDDC47232433
:10086000F4FE0100832784FE1387F7FF2324E4FEB0
:10087000F5FB8327C4FD9C43BD8B0547B317F700E9
:1008800093960701C1828327C4FD9C4313D7570069
:10089000B70700200A0793870704BA979C43368757
:1008A000D8CB0100B250225445618280797106D6BE
:1008B00022D40018232EA4FC8327C4FDB337F000F4
:1008C00093F7F70F3E8713064005C1679385479E50
:1008D0003A85EF3020718327C4FDDC43BD8B05478B
:1008E000B317F70093960701C1828327C4FDDC4349
:1008F00013D75700B70700200A0793870704BA9752
:100900009C433687D8CB8327C4FD9C43BD8B0547CA
:10091000B317F70093960701C1828327C4FD9C4358
:1009200013D75700B70700200A0793870704BA9721
:100930009C433687D8CB8327C4FDDC472326F4FEAF
:1009400001008327C4FE1387F7FF2326E4FEF5FB8F
:100950008327C4FD9C43BD8B0547B317F7009396CF
:100960000701C1828327C4FD9C4313D75700B707F3
:1009700000200A0793870704BA979C43368798CBD1
:100980008327C4FDDC472324F4FE0100832784FE73
:100990001387F7FF2324E4FEF5FB8327C4FDDC4324
:1009A000BD8B0547B317F70093960701C1828327D4
:1009B000C4FDDC4313D75700B70700200A0793870D
:1009C0000704BA979C43368798CB8327C4FDDC473E
:1009D0002322F4FE0100832744FE1387F7FF23221E
:1009E000E4FEF5FB0100B25022544561828079712A
:1009F00006D622D40018232EA4FCAE87A30DF4FC47
:100A00008327C4FDB337F00093F7F70F3E87130633
:100A10009006C1679385479E3A85EF30A05C832797
:100A2000C4FD9C43BD8B0547B317F70093960701A0
:100A3000C1828327C4FD9C4313D75700B70700200A
:100A40000A0793870704BA979C433687D8CB834716
:100A5000B4FD95CB8327C4FDDC43BD8B0547B3179D
:100A6000F70093960701C1828327C4FDDC4313D7A7
:100A70005700B70700200A0793870704BA979C43DB
:100A8000368798CB0DA88327C4FDDC43BD8B054773
:100A9000B317F70093960701C1828327C4FDDC4397
:100AA00013D75700B70700200A0793870704BA97A0
:100AB0009C433687D8CB8327C4FDDC472326F4FE2E
:100AC00001008327C4FE1387F7FF2326E4FEF5FB0E
:100AD0008327C4FD9C43BD8B0547B317F70093964E
:100AE0000701C1828327C4FD9C4313D75700B70772
:100AF00000200A0793870704BA979C43368798CB50
:100B00008327C4FDDC472324F4FE0100832784FEF1
:100B10001387F7FF2324E4FEF5FB8327C4FD9C43E2
:100B2000BD8B0547B317F70093960701C182832752
:100B3000C4FD9C4313D75700B70700200A079387CB
:100B40000704BA979C433687D8CB8327C4FDDC4380
:100B5000BD8B0547B317F70093960701C182832722
:100B6000C4FDDC4313D75700B70700200A0793875B
:100B70000704BA979C43368798CB0100B2502254A1
:100B800045618280797106D622D40018232EA4FCF8
:100B90008327C4FDB337F00093F7F70F3E871306A2
:100BA0005008C1679385479E3A85EF30A043A3075D
:100BB00004FE8327C4FD9C43BD8B0547B317F70094
:100BC00093960701C1828327C4FD9C4313D7570026
:100BD000B70700200A0793870704BA979C43368714
:100BE000D8CB8327C4FDDC43BD8B0547B317F70083
:100BF00093960701C1828327C4FDDC4313D75700B6
:100C0000B70700200A0793870704BA979C433687E3
:100C100098CB8327C4FDDC472324F4FE01008327FF
:100C200084FE1387F7FF2324E4FEF5FB8327C4FD2E
:100C30009C43BD8B0547B317F70093960701C1820C
:100C40008327C4FD9C4313D75700B70700200A072A
:100C500093870704BA979C43368798CB8327C4FDB4
:100C6000DC472322F4FE0100832744FE1387F7FFAD
:100C70002322E4FEF5FB8327C4FDDC433E85FD38DB
:100C8000AA8781C78547A307F4FE8327C4FD9C4339
:100C9000BD8B0547B317F70093960701C1828327E1
:100CA000C4FD9C4313D75700B70700200A0793875A
:100CB0000704BA979C433687D8CB8327C4FDDC470B
:100CC0002320F4FE0100832704FE1387F7FF23206F
:100CD000E4FEF5FB8347F4FE3E85B25022544561A5
:100CE0008280797106D622D40018232EA4FCAE8708
:100CF000A30DF4FC8327C4FDB337F00093F7F70F7F
:100D00003E871306700AC1679385479E3A85EF3088
:100D1000602D930700F8A307F4FE09AA0347B4FD6A
:100D20008347F4FEF98F93F7F70F95CB8327C4FD24
:100D3000DC43BD8B0547B317F70093960701C182CB
:100D40008327C4FDDC4313D75700B70700200A07E9
:100D500093870704BA979C43368798CB0DA88327BF
:100D6000C4FDDC43BD8B0547B317F700939607011D
:100D7000C1828327C4FDDC4313D75700B707002087
:100D80000A0793870704BA979C433687D8CB8347D3
:100D9000F4FE8583A307F4FE8327C4FDDC472324E8
:100DA000F4FE0100832784FE1387F7FF2324E4FE6B
:100DB000F5FB8327C4FD9C43BD8B0547B317F700A4
:100DC00093960701C1828327C4FD9C4313D7570024
:100DD000B70700200A0793870704BA979C43368712
:100DE00098CB8327C4FDDC472322F4FE0100832730
:100DF00044FE1387F7FF2322E4FEF5FB8327C4FD9F
:100E00009C43BD8B0547B317F70093960701C1823A
:100E10008327C4FD9C4313D75700B70700200A0758
:100E200093870704BA979C433687D8CB8347F4FE51
:100E3000E39607EE0325C4FDB133AA87FD17B33748
:100E4000F00093F7F70F3E85B2502254456182803F
:100E5000397106DE22DC26DA80002326A4FCAE8768
:100E6000A305F4FC8327C4FCB337F00093F7F70F16
:100E70003E871306000CC1679385479E3A85EF3085
:100E80006016A30704FEA1472307F4FE8327C4FCD2
:100E90009C43BD8B0547B317F70093960701C182AA
:100EA0008327C4FC9C4313D75700B70700200A07C9
:100EB00093870704BA979C433687D8CB8327C4FC13
:100EC000DC472324F4FE0100832784FE1387F7FF09
:100ED0002324E4FEF5FB8327C4FCDC43BD8B0547DC
:100EE000B317F70093960701C1828327C4FCDC4344
:100EF00013D75700B70700200A0793870704BA974C
:100F00009C43368798CB7DA88327C4FC9C43BD8B2C
:100F10000547B317F70093960701C1828327C4FCE6
:100F20009C4313D75700B70700200A07938707048D
:100F3000BA979C433687D8CB8327C4FCDC4723224F
:100F4000F4FE0100832744FE1387F7FF2322E4FE0B
:100F5000F5FB8327C4FC9C43BD8B0547B317F70003
:100F600093960701C1828327C4FC9C4313D7570083
:100F7000B70700200A0793870704BA979C43368770
:100F800098CB8327C4FCDC472320F4FE0100832791
:100F900004FE1387F7FF2320E4FEF5FB8347F4FEEE
:100FA000860793948701E1848327C4FCDC433E8554
:100FB000EFF0CFDCAA87E207E187C58FE207E18780
:100FC000A307F4FE8347E4FE1387F7FF2307E4FE3D
:100FD00085FF8327C4FC9C43BD8B0547B317F700EF
:100FE00093960701C1828327C4FC9C4313D7570003
:100FF000B70700200A0793870704BA979C433687F0
:10100000D8CB8327C4FCDC47232EF4FC01008327C4
:10101000C4FD1387F7FF232EE4FCF5FB8347B4FCE4
:10102000BE850325C4FCE1328347F4FE3E85F250C1
:101030006254D25421618280011106CE22CC00106C
:101040002326A4FEAE873287A305F4FEBA872305C4
:10105000F4FE8327C4FEB337F00093F7F70F3E8703
:1010600013062029C1679385479E3A85EF20907724
:101070000325C4FEEFF00FF18327C4FE83C787006A
:10108000860793F7F70FBE850325C4FE993983477A
:10109000B4FEBE850325C4FEA9318347A4FEBE85E8
:1010A0000325C4FE3D390325C4FEEFF03F80010057
:1010B000F240624405618280797106D622D400181C
:1010C000232EA4FCAE87A30DF4FC8327C4FDB33705
:1010D000F00093F7F70F3E871306402AC167938508
:1010E000479E3A85EF201070A30704FE0325C4FD38
:1010F000EFF04FE98327C4FD83C78700860793F786
:10110000F70FBE850325C4FDE93E8347B4FDBE85C8
:101110000325C4FDF9360325C4FDEFF02FF903259F
:10112000C4FDEFF02FE68327C4FD83C78700860741
:10113000E207E18793E71700E207E18793F7F70FEC
:10114000BE850325C4FD713E85450325C4FD0933D5
:10115000AA87A307F4FE0325C4FDEFF02FF583470C
:10116000F4FE3E85B250225445618280797106D6E4
:1011700022D400182326A4FEAE872322C4FE2320F7
:10118000D4FE232EE4FCA305F4FE8327C4FEB3376C
:10119000F00093F7F70F3E871306F02BC167938596
:1011A000479E3A85EF201064032704FE8327C4FD81
:1011B000B307F740B337F00093F7F70F3E871306F6
:1011C000002CC1679385479E3A85EF20B061832745
:1011D000C4FE032704FE98C38327C4FE0327C4FD6F
:1011E000D8C38327C4FE0347B4FE2384E7008327C4
:1011F000C4FE032744FED8C7C146054685450325DE
:1012000004FEEFF06FC2D146054685450325C4FDB7
:10121000EFF08FC10100B25022544561828001116C
:1012200022CE00102326A4FE2324B4FE2322C4FED3
:10123000B1A0832784FE138717002324E4FE83C60E
:101240000700C1670327C4FE0A079387C71BBA9725
:101250009C433E8793970601C1832316F700010044
:10126000C1670327C4FE0A079387C71BBA979C432D
:1012700083D78700C207C183898BFDD3832744FEB0
:101280001387F7FF2322E4FECDF70100C167032790
:10129000C4FE0A079387C71BBA979C4383D787006E
:1012A000C207C18393F70708F5F301007244056193
:1012B0008280011122CE00102326A4FE2324B4FE36
:1012C0002322C4FE2320D4FEC1670327C4FE0A07DD
:1012D0009387C71BBA979C4383D7C70049A083272E
:1012E00084FE138717002324E4FE83C60700C1672A
:1012F0000327C4FE0A079387C71BBA979C433E8700
:1013000093970601C1832316F7000100C1670327E5
:10131000C4FE0A079387C71BBA979C4383D78700ED
:10132000C207C18393F70708F5F3832744FE85CBF3
:10133000C1670327C4FE0A079387C71BBA979C435C
:1013400083D7C70093960701C182832744FE138782
:1013500017002322E4FE13F7F60F2380E70083270C
:1013600004FE1387F7FF2320E4FEB5FB010072445F
:1013700005618280797122D60018232EA4FCB7372C
:101380000140938707C02326F4FE231504FE03279C
:10139000C4FDA54763ECE7088327C4FD1397270026
:1013A000C1679387871CBA979C438287B7370140F0
:1013B000938707C02326F4FE95A8B707004023268D
:1013C000F4FEADA0B7070040938707402326F4FE44
:1013D000B1A8B7170040938707802326F4FEB9A071
:1013E000B7170040938707C02326F4FE81A0B717E4
:1013F00000402326F4FE1DA8B7170040938707403E
:101400002326F4FE25A0B737014093870740232603
:10141000F4FE29A8B7570140938707C02326F4FE9E
:1014200031A0B75701402326F4FE01000327C4FD75
:101430000A079387818DBA9798438947631FF700FE
:101440008327C4FE83D747021397070141838D4743
:10145000B357F7022315F4FE39A08327C4FE83D7C0
:1014600047022315F4FE8357A4FE3E85325445619E
:101470008280797122D60018232EA4FCB737014050
:10148000938707C02326F4FE0327C4FDA54763EC1A
:10149000E7088327C4FD13972700C1679387071FB9
:1014A000BA979C438287B7370140938707C02326AA
:1014B000F4FE95A8B70700402326F4FEADA0B707B9
:1014C0000040938707402326F4FEB1A8B7170040D9
:1014D000938707802326F4FEB9A0B71700409387AF
:1014E00007C02326F4FE81A0B71700402326F4FE90
:1014F0001DA8B7170040938707402326F4FE25A0B8
:10150000B7370140938707402326F4FE29A8B75731
:101510000140938707C02326F4FE31A0B75701404E
:101520002326F4FE01008327C4FE23920702010054
:10153000325445618280011122CE00102326A4FE80
:10154000AE87A305F4FE0100C1670327C4FE0A07A6
:1015500093878721BA979C4383D70700C207C1832B
:1015600093F70708F5D3C1670327C4FE0A079387DB
:101570008721BA979C433E878347B4FEC207C18345
:101580002312F7000100724405618280011106CE2A
:1015900022CC00102326A4FE2324B4FE2322C4FE62
:1015A000832784FEB337F00093F7F70F3E871306C7
:1015B0001004C167938547A23A85EF20B02229A87D
:1015C000832784FE138717002324E4FE83C70700C4
:1015D000BE850325C4FE8537832744FE1387F7FFA6
:1015E0002322E4FEF1FF0100F240624405618280A3
:1015F000011106CE22CC00102326A4FE2324B4FE23
:10160000832784FEB337F00093F7F70F3E87130666
:101610000005C167938547A23A85EF20B01C39A821
:10162000832784FE138717002324E4FE83870700A3
:1016300093F7F70FBE850325C4FEF53D832784FE8F
:1016400083870700F1FF0100F24062440561828058
:10165000011106CE22CC00102326A4FEAE87A305DE
:10166000F4FEC1670327C4FE0A0793878721BA9750
:101670009C433E878347B4FE3E86930550523A858D
:10168000EF60D0301387C1838327C4FEBA9783C726
:10169000070081453E85EF4030188347B4FE81CF77
:1016A0001387C1838327C4FEBA9783C707003E858B
:1016B000EF40D01219A81387C1838327C4FEBA97BD
:1016C00083C707003E85EF4050130100F24062449B
:1016D00005618280011122CE00102326A4FE23245E
:1016E000B4FEC1670327C4FE0A0793878721BA9710
:1016F0009C4383D70700C207C18393F707028DC7B6
:10170000C1670327C4FE0A0793878721BA979C43C2
:1017100083D74700C207C18313F7F70F832784FEDF
:101720002380E700854711A081473E85724405610B
:101730008280797106D622D40018232EA4FC232C93
:10174000B4FC232AC4FC2328D4FC032744FD8327AC
:1017500004FD3D8F8327C4FDB207F98F93B71700AF
:1017600093F7F70F3E871306A00AC167938547A238
:101770003A85EF203007832744FD13D7870083275E
:1017800004FDA183B307F74093B7170093F7F70F52
:101790003E871306B00AC167938547A23A85EF20BA
:1017A0007004832744FD93F7F70FE1460146854512
:1017B0003E85EFE07FE7832704FD93F7F70F93065D
:1017C0008004014681453E85EFE01FE685450545DD
:1017D000EF60C04C032744FDC167FD17F98F0D670B
:1017E000130707386387E7200D6713070738636916
:1017F000F7040567130757166381E7160567130794
:101800005716636FF7001307F022638AE70C13077C
:1018100060306381E710130760126388E70865A6EC
:10182000096713078736638BE7160D6713070712DF
:101830006387E71809671307A7146380E71461A695
:1018400015671307A738638EE72615671307A738B0
:101850006362F7021167130787386380E720156713
:10186000130787126385E722116713074712638CFA
:10187000E71A91AE19671307C7386388E72A196713
:101880001307C7386368F700196713076710638485
:10189000E72615AE1D671307E7106382E72C1D6767
:1018A0001307E7386387E72E39AEB7070140D44FF7
:1018B000B7070140370700FC7D17758FD8CFB707F2
:1018C0000140D843B70701406D9BD8C3B70701401B
:1018D000D843B707014013674700D8C3EDA4B70743
:1018E0000140D44FB7070140370700FC7D17758FC3
:1018F000D8CFB7070140D44FB707014037070004DE
:10190000558FD8CFB7070140D843B70701406D9B2B
:10191000D8C355ACB7070140D44FB70701403707CC
:1019200000FC7D17758FD8CFB7070140D44FB7079C
:10193000014037070004558FD8CFB7070140D8437F
:10194000B70701406D9BD8C3B7070140D843B7071D
:10195000014013674700D8C3BDA4B7070140D8436F
:10196000B70701405D9BD8C3B7070140D843B7070D
:10197000014013678700D8C3B9A4B7070140D84313
:10198000B70701401377F7FCD8C3B7070140D84326
:10199000B707014013670701D8C335A4B707014053
:1019A000D843B70701401377F7FCD8C3B707014006
:1019B000D843B707014013670703D8C329A4B70763
:1019C0000140D44FB70701403707FDFF7D17758FE2
:1019D000D8CFB7070140D44F832744FDA183139785
:1019E0000701B70703007D8FB7070140558FD8CF98
:1019F000D9AAB7070140D44FB70701403707FDFF09
:101A00007D17758FD8CFB7070140D44F832744FD8A
:101A1000A18313970701B70703007D8FB707014024
:101A2000558FD8CF4DA2B7070140D44FB70701401B
:101A30003707F4FF7D17758FD8CFB7070140D44F14
:101A4000832744FDA18313972701B7070C007D8FDF
:101A5000B7070140558FD8CFBDA2B7070140D44F7B
:101A6000B70701403707F4FF7D17758FD8CFB70749
:101A70000140D44F832744FDA18313972701B70763
:101A80000C007D8FB7070140558FD8CF2DAAB7071F
:101A90000140D44FB70701403707D0FF7D17758F3E
:101AA000D8CFB7070140D44F832744FDA1831397B4
:101AB0004701B70730007D8FB7070140558FD8CF5A
:101AC00019A2B7070140D44FB70701403707D0FF2D
:101AD0007D17758FD8CFB7070140D44F832744FDBA
:101AE000A18313974701B70730007D8FB7070140E7
:101AF000558FD8CFC9A8B7070140D44FB7070140C9
:101B0000370740FF7D17758FD8CFB7070140D44FF7
:101B1000832744FDA18313976701B707C0007D8F1A
:101B2000B7070140558FD8CF79A8B7070140D44FE8
:101B3000B7070140370740FF7D17758FD8CFB7072C
:101B40000140D44F832744FDA18313976701B70752
:101B5000C0007D8FB7070140558FD8CFADA0B70724
:101B60000140D44FB7070140370700FD7D17758F3F
:101B7000D8CFB7070140D44F832744FDA1831397E3
:101B80008701B70700037D8FB7070140558FD8CF76
:101B90001DA8B7070140D44FB7070140370700FD24
:101BA0007D17758FD8CFB7070140D44F832744FDE9
:101BB000A18313978701B70700037D8FB707014003
:101BC000558FD8CF01008327C4FD91E78545116566
:101BD000EF60C00C69A80327C4FD85476318F700B0
:101BE000854537050200EF60C00F51A00327C4FDF3
:101BF00089476318F700854537050400EF60600EDC
:101C0000BDA00327C4FD8D476318F7008545370540
:101C10000800EF60000DA1A80327C4FD91476318D9
:101C2000F700854537051000EF60A00B89A003275A
:101C3000C4FD95476318F700854513050004EF6060
:101C4000400A35A00327C4FD99476318F70085456E
:101C500013050008EF60E00819A80327C4FD9D479D
:101C60006317F700854513050010EF6080072320F8
:101C700004FE232204FE232404FE232604FE8327DD
:101C800084FD2320F4FE231204FE231304FE2314F8
:101C900004FE231604FEB1472315F4FEC167032793
:101CA000C4FD0A0793878721BA979C433E87930711
:101CB00004FEBE853A85EF602024C1670327C4FD7A
:101CC0000A0793878721BA979C4385453E85EF6035
:101CD000E0450100B250225445618280011122CEBC
:101CE00000102326A4FE8327C4FEFD8B0547B316F0
:101CF000F70037E700E08327C4FE95839387070446
:101D00008A07BA9794C30100724405618280797191
:101D100006D622D40018232EA4FC232CB4FC2326A0
:101D200004FE232604FE35A00327C4FD8327C4FE3A
:101D30003E9783A6818A8327C4FE93870704B697BC
:101D4000034707002380E7008327C4FE8507232677
:101D5000F4FE0327C4FE832784FDE367F7FC832793
:101D600084FD93F7F70F3E85EF60F0000100B707A1
:101D7000005083C7A70393F7F70F898BEDDB0100B2
:101D8000B250225445618280797106D622D400185F
:101D9000232EA4FC232CB4FCA30704FEA9A0032734
:101DA00084FD9307F00363F7E7029305000403251E
:101DB000C4FDB13F8327C4FD93870704232EF4FCA1
:101DC000832784FD938707FC232CF4FC8547A30716
:101DD000F4FE11A8832584FD0325C4FD0D3F232CAB
:101DE00004FCA30704FE832784FDD5FB8347F4FE90
:101DF00089C781450325C4FD193F81473E85B250FF
:101E0000225445618280411106C622C4000813870E
:101E1000818923A0E18A37670020130787EF23A277
:101E2000E18A37670020130787F723A4E18AEF6070
:101E3000606C13054006EFE02FC7EF60A05DB74769
:101E40000240938707809843B747024093870780F3
:101E50001367270098C31305300549350100B240C8
:101E6000224441018280797106D622D40018232EA3
:101E7000A4FC232CB4FC8327C4FDB337F00093F7F4
:101E8000F70F3E8713063006C167938507A63A858C
:101E9000EF204015231704FEBDA013058008EFE0D6
:101EA000EFEDAA87B9E3032784FDF54763F5E70261
:101EB00079468325C4FD1945EFF04FED8327C4FD16
:101EC000F907232EF4FC832784FD8917232CF4FCC7
:101ED000231704FE0DA8032684FD8325C4FD1945A0
:101EE000EFF0CFEA232C04FC25A08357E4FE8507FE
:101EF0002317F4FE0357E4FE9307301F63E9E7005E
:101F00000545EFE06FBA832784FDC1FB11A00100F6
:101F1000832784FD3E85B2502254456182807971C9
:101F200006D622D40018232EA4FC232CB4FC83272D
:101F3000C4FDB337F00093F7F70F3E871306600E2A
:101F4000C167938507A63A85EF20C009832784FDE2
:101F50002326F4FE9307C4FE81463E868325C4FDF6
:101F600013850190EF30600B8327C4FE3E85B2508D
:101F7000225445618280411106C622C4000883A70D
:101F800041850547638BE7006388070C0947638D2C
:101F9000E7000D47638FE702E9A083A70185138758
:101FA000170023A8E18475A883A70185138717006C
:101FB00023A8E18403A70185A54763F1E70AB707D2
:101FC0000020938707049C4B1167D8CB23A801847A
:101FD00071A003A7818585476314F7081305F008EE
:101FE000EFE0CFD9AA87ADC31945EFF0AFB8AA8704
:101FF0003E8783A701851D8F9307600963F2E7067B
:102000001945EFF00FC783A70185D3F717D0538584
:10201000F720EFA06022C16703A687AA83A6C7AAFC
:10202000EF80F066AA872E883E85C285EFA08009E2
:10203000AA87139707014183B7070020239CE7264F
:10204000094723ACE18429A81945EFF0AFB2AA876C
:102050003E8723A8E18429A0010021A0010011A04E
:1020600001000100B240224441018280411106C6B4
:1020700022C4000883A741850947637CF7000D4708
:10208000639AE7001945EFF0CFBE054723ACE18422
:1020900011A001000100B2402244410182800111DF
:1020A00006CE22CC0010232204FE83C7D185638193
:1020B000071409A8930734FE0546BE851385C19110
:1020C000EF201017930734FEBE851D45EFF08FE01B
:1020D000AA87EDF3034734FEA947631BF71099471E
:1020E0002322F4FE130744FE930784FE85463A86B6
:1020F000BE851385C191EF205072930784FE13872C
:1021000037000D46C167938507AB3A85EFA09079FC
:10211000AA879DEB03A7418689476304F70C05470F
:1021200023A2E1861385C191EF20E062AA872322D2
:10213000F4FE930744FE81463E869385819B13857A
:10214000C191EF20906D71A8930784FE138737002B
:102150000D46C167938547AB3A85EFA0B074AA8757
:102160009DEB03A701868947630DF706054723A06A
:10217000E1861385C191EF20005EAA872322F4FE39
:10218000930744FE81463E86938581931385C191D2
:10219000EF20B068B9A0930784FE138737000D467F
:1021A000C167938587AB3A85EFA0D06FAA8795EB7F
:1021B00003A7818689476306F702054723A4E186C2
:1021C0001385C191EF202059AA872322F4FE93079B
:1021D00044FE81463E86938581A31385C191EF20FD
:1021E000D0631385C191EF2060320547238EE184CF
:1021F0000100F240624405618280397106DE22DC12
:1022000080002326A4FC8547A307F4FE231304FEC5
:10221000231604FE232404FE232E04FC83D74187C7
:102220003E87930700236316F700A5472324F4FE97
:1022300029A0A1472324F4FE01008DA8930750FA9A
:102240002300F4FE832784FE8A070327C4FCBA9781
:102250008397070093F7F70FA300F4FE832784FE0C
:102260008A070327C4FCBA97839727002313F4FE39
:10227000835764FEA183C207C18393F7F70F23013D
:10228000F4FE835764FE93F7F70FA301F4FE930760
:1022900004FE1146BE851145EFF04FAF0945EFE052
:1022A000AF80832784FEFD172324F4FE032784FEDA
:1022B0009307E00FE3F4E7F883A701873E85EF205B
:1022C00080492A87894763FFE7028D47232EF4FC64
:1022D00083A701871306C4FD130704FE8146BA8550
:1022E0003E85EF209053034714FE9307F00F6308D9
:1022F000F700034724FE9307F00F6315F700A307C9
:1023000004FE31A80545EFD03FFA8357C4FE13877A
:1023100017002316E4FE1307700CE37FF7F88347DA
:10232000F4FE3E85F250625421618280797106D6B6
:1023300022D40018232EA4FCA30704FE230704FEC6
:10234000231504FE231604FE232004FE83D74187B1
:102350003E87930700236316F700A547A307F4FE03
:1023600029A0A147A307F4FE01008347F4FEFD174F
:1023700093F7F70FA307F4FE11AA03D7418793073A
:10238000F02263EDE7008307F4FE8A070327C4FD0C
:10239000BA9703970700A5476300F70E930750FA13
:1023A0002302F4FEC557A302F4FE8307F4FE8A0756
:1023B0000327C4FDBA97839707002315F4FE8357BC
:1023C000A4FEA183C207C18393F7F70F2303F4FE92
:1023D0008357A4FE93F7F70FA303F4FE930744FE7D
:1023E0001146BE851145EFF06F9A231604FE83A7B0
:1023F00001873E85EF2020362A87894763F7E70467
:102400008D472320F4FE83A70187130604FE1307DC
:1024100044FE8146BA853E85EF203040834754FE16
:10242000A20793960701C186834764FE13970701AD
:1024300041878307F4FE8A070326C4FDB297558FB0
:10244000420741872391E70031A80545EFD0DFE53A
:102450008357C4FE138717002316E4FE1307700C7E
:10246000E377F7F80357C4FE9307800C63F7E700A0
:1024700085472307F4FE39A801008307F4FE93F78C
:10248000F70FFD1793F7F70FA307F4FE8307F4FE8A
:10249000E3D507EE8347E4FE3E85B2502254456102
:1024A0008280011106CE22CC0010232404FE854731
:1024B000A307F4FE231604FE232204FE83A701874C
:1024C0003E85EF204029AA8791C783A701873E85D3
:1024D000EF20C0039305F00F1145EFF0CF85930770
:1024E00050FA2304F4FEBD57A304F4FE230504FEB2
:1024F000A30504FE930784FE1146BE851145EFF047
:10250000EF88231604FE83A701873E85EF20A024D1
:102510002A87894763F0E7048D472322F4FE83A7C7
:102520000187130644FE130784FE8146BA853E8563
:10253000EF20B02E0347A4FE85476309F700034749
:10254000A4FE89476304F700854711A08147A307CC
:10255000F4FE31A80545EFD03FD58357C4FE13875D
:1025600017002316E4FE1307700CE37EF7F8834789
:10257000F4FE3E85F240624405618280011106CE80
:1025800022CC0010A30704FE9307F4FEBE8511457C
:10259000EFF04F9483A7018785C70347F4FE9307A5
:1025A000500A6317F70083A701873E85EF10107666
:1025B00083A701870347F4FEBA853E85EF204021BB
:1025C0000100F240624405618280411122C6000888
:1025D00005472386E18601003244410182800111D2
:1025E00006CE22CC0010231704FE231604FE23225D
:1025F00004FE930750FA2304F4FEC557A304F4FE27
:10260000230504FEC957A305F4FE930784FE114673
:10261000BE851145EFE09FF783A701873E85EF2038
:1026200080132A87894763F0E7048D472322F4FE4D
:1026300083A70187130644FE130784FE8146BA85EB
:102640003E85EF20901D834794FEA2071397070154
:1026500041878347A4FEC207C187D98FC207C187BC
:102660002316F4FE31A80545EFD01FC48357E4FEBE
:10267000138717002317E4FE1307700CE37EF7F8A7
:102680008357C4FE3E85F2406244056182805D71DD
:1026900086C6A2C480088547A307F4FEB7070020BA
:1026A000054723AEE7269307C4FD1307C00493062E
:1026B00020061306401F81453E85EFE03FAB9307A0
:1026C000C4FD3E85EF60F05CAA87B5EFC16703AE3D
:1026D00047C1138747C103234700138747C1832896
:1026E0008700138747C10328C700138747C1084BDA
:1026F000138747C14C4B138747C1104F138747C1FE
:10270000544F138747C11853938747C1DC53232A7B
:10271000C4FB232C64FA232E14FB232004FD232264
:10272000A4FC2324B4FC2326C4FC2328D4FC232AA1
:10273000E4FC232CF4FC930744FB3E85EF60505BE4
:10274000AA87A307F4FE8347F4FE3E85B6402644DD
:1027500061618280597186D6A2D480188547A3070B
:10276000F4FE230704FE232404FEB707002023AE53
:10277000072613050004EF901042AA872324F4FED5
:10278000832784FE85E393067020C167138607BA0A
:10279000C167938547BE0145EF10500B8947A307DA
:1027A000F4FE35AC6545EF90103FAA873E8723A81D
:1027B000E18683A7018785E79306E020C16713863A
:1027C00007BAC167938507C00145EF10300803259C
:1027D00084FEEF90F03C8947A307F4FE09A483A789
:1027E000018793060004032684FE81453E85EF3071
:1027F000603D91679386270691671386C704F1674A
:10280000938507201145EFE0DFF285451145EFE0A4
:102810003FE4F133AA873E87239AE18683D7418735
:1028200081CF4131AA8789CB81451145EFE05FE235
:102830008D47A307F4FE65A2C16703AE47C11387A6
:1028400047C103234700138747C1832887001387A5
:1028500047C10328C700138747C1084B138747C1E7
:102860004C4B138747C1104F138747C1544F1387F1
:1028700047C11853938747C1DC532320C4FD23224B
:1028800064FC232414FD232604FD2328A4FC232A0E
:10289000B4FC232CC4FC232ED4FC2320E4FE2322EE
:1028A000F4FEC16703A347C7138747C783284700C0
:1028B000138747C703288700138747C748471387ED
:1028C00047C70C4B138747C7504B138747C7144F55
:1028D000138747C7584F938747C79C53232E64F8E5
:1028E000232014FB232204FB2324A4FA2326B4FA76
:1028F0002328C4FA232AD4FA232CE4FA232EF4FA48
:10290000930704FC3E85EFF05F8FAA8785C7930687
:10291000B024C167138607BAC1679385C7C3014551
:10292000EF10C07281451145EFE09FD28547A307A4
:10293000F4FE75A09307C4F93E85EFF03F9FAA8788
:1029400085C793067025C167138607BAC16793854B
:1029500087C50145EF10806F81451145EFE05FCFDE
:102960008547A307F4FEA5A8230704FEA1A8834773
:10297000E4FE85078A07130704FFBA97039707FD4C
:102980008347E4FE8A07930604FFB6978397C7FA46
:10299000631FF7028347E4FE85078A07130704FFD6
:1029A000BA97039727FD8347E4FE8A07930604FF3F
:1029B000B6978397E7FA631CF7008347E4FE850721
:1029C0002307F4FE0347E4FEA147E3F2E7FA834757
:1029D000E4FE93B7870093F7F70FA307F4FE0325F0
:1029E00084FEEF90F01B83A701873E85EF90501B7C
:1029F00023A801868347F4FE3E85B65026546561C0
:102A00008280797106D622D40018A30704FEB72766
:102A100000001386A75C81450D4569288D39AA877A
:102A200099CFB72700001386A75CB72700009385CE
:102A3000C7570D454120393BAA87A307F4FE8347BA
:102A4000F4FEB9E791473EC495473EC299473EC060
:102A50009308900213088002930760021307B004E2
:102A60009306900413068004A9452545EFD03F98AE
:102A700093068007996713860782B707002093851E
:102A80000753B707002013850753EFD07FA629A06F
:102A900001468145014539288347F4FE3E85B25001
:102AA000225445618280411122C60008010032444F
:102AB00041018280011122CE00102326A4FE23248E
:102AC000B4FE2322C4FE0327C4FE23ACE186832781
:102AD00044FE81C7832744FE29A0B73700009387AF
:102AE00067AA23A6F180832784FE81C7832784FEFB
:102AF00029A0B7370000938767AA23A4F1800100BB
:102B0000724405618280797106D622D40018232E82
:102B1000A4FC232604FE0327C4FD93074006B30745
:102B2000F702232EF4FC39A82945EFD01F82832712
:102B3000C4FE85072326F4FE0327C4FD8327C4FEB5
:102B400063F9E70013051004EFD05FA3AA87E9DF5C
:102B500011A001000327C4FD8327C4FEB3B7E7001B
:102B600093C7170093F7F70F3E85B2502254456183
:102B70008280011106CE22CC00102326A4FEAE874F
:102B80002315F4FEB7070020938707049C470547E9
:102B9000D8CB8327C4FE0327C4FE91463A86BE8560
:102BA0000545EFE00FF18357A4FE99CF8327C4FEBC
:102BB000138747008327C4FE91078356A4FE3E86F1
:102BC000BA850545EFE0EFEEB707002093870704CD
:102BD0009C47054798CB0100F24062440561828022
:102BE000011106CE22CC00102326A4FE2324B4FE1D
:102BF000B2872313F4FEB7070020938707049C478E
:102C00000547D8CB832784FE09472380E700832725
:102C100084FE035764FE2391E700832784FE032785
:102C200084FE91463A86BE850545EFE08FE803575E
:102C300064FE9307000263FAE702832784FE91078C
:102C4000930600023E868325C4FE0545EFE06FE64D
:102C50008327C4FE13870702835764FE81173E86CD
:102C6000BA850545EFE0AFDB15A8832784FE910701
:102C7000035764FE3A868325C4FE3E85EF90E072DA
:102C8000832784FE13874700832784FE91079306DA
:102C900000023E86BA850545EFE0AFE1B7070020A8
:102CA000938707049C47054798CB0100F240624494
:102CB000056182805D7186C6A2C48008232EA4FAB5
:102CC000232CB4FA83A7C18763970710054723AE67
:102CD000E18669A0832784FB056761176374F700A9
:102CE0008567E1172317F4FE1305803E293DAA8767
:102CF000B5EB0357E4FE930784FC3A86BE850325B3
:102D0000C4FBF93D034784FC930700096308F700FF
:102D1000034784FC930710096313F7028357A4FC4D
:102D200099CF8357A4FC3E87930784FC91073A868A
:102D3000BE85B7670020138507D5EF10704F835706
:102D4000E4FE032784FBB307F740232CF4FA8357F0
:102D5000E4FE0327C4FBBA97232EF4FA832784FBEF
:102D6000B5FB85A00100B1A81305803E693BAA8789
:102D7000A5E389472304F4FC231504FC930784FC92
:102D8000930500023E85F533034784FC9307000951
:102D90006308F700034784FC930710096313F702E5
:102DA0008357A4FC99CF8357A4FC3E87930784FCE8
:102DB00091073A86BE85B7670020138507D5EF10C7
:102DC0003047034784FC93070009E30FF7F811A08D
:102DD000010023AE0186832784FB3E85B64026444E
:102DE000616182805D7186C6A2C48008232EA4FA28
:102DF000232CB4FA8327C4FBB337F00093F7F70F03
:102E00003E8713063023C167938507CC3A85EF10C0
:102E1000601D832784FB2326F4FE83A7C187BDEBB7
:102E2000054723AEE1861305803EF139AA87A5E365
:102E300089472304F4FC231504FC930784FC9305C1
:102E400000023E853D33034784FC93070009630875
:102E5000F700034784FC930710096313F7028357B5
:102E6000A4FC99CF8357A4FC3E87930784FC910769
:102E70003A86BE85B7670020138507D5EF10503B13
:102E8000034784FC93070009E30FF7F811A0010042
:102E900023AE01869307C4FE81463E868325C4FB8C
:102EA000B7670020138507D5EF2020178327C4FEBE
:102EB0003E85B640264461618280797106D622D46F
:102EC0000018232EA4FC232CB4FC8547A307F4FE92
:102ED000230204FEA30204FE230304FEA30304FE54
:102EE000230404FEA30404FE230504FEA30504FE3C
:102EF000A1472320F4FE0545EFD00FBBA1472320B7
:102F0000F4FE130704FE930744FE85463A86BE8509
:102F1000B7670020138547E0EF20606A930744FEFF
:102F20008325C4FD3E85EFA0A01AAA8781C7A30709
:102F300004FE81A0130744FEC167938507D03A853C
:102F4000EFA00019AA8799EB130744FEC167938588
:102F500087D03A85EFA0C017AA8789C78547A307FE
:102F6000F4FE01A8832784FD1387F7FF232CE4FCDC
:102F7000D9F38347F4FE3E85B250225445618280E6
:102F8000411106C622C40008B7670020138547E038
:102F9000EF10C0570100B2402244410182805D71B0
:102FA00086C6A2C48008232EA4FA232CB4FA832751
:102FB000C4FBB337F00093F7F70F3E871306D03BFF
:102FC000C167938547E13A85EF10C0018967938710
:102FD00007712326F4FE232604FC232804FC232A5D
:102FE00004FC232C04FC232E04FC232004FE2322B7
:102FF00004FE232404FEB76700209387C7D603A7E7
:10300000470985476316F710B76700209387C7D62F
:1030100083A7C7086395070EA537032784FB93078B
:10302000C4FCBA853E85EF20705E032784FB896768
:1030300063F9E700C1679385C7EF1945EFE04FDB00
:1030400039A0C1679385C7F01945EFE06FDAB7671C
:1030500000209387C7D603A7070985476318F700A1
:10306000C167938587F11945EFE08FD89307C4FCBA
:10307000BE851945EFE0CFD7C167938547D2194583
:10308000EFE00FD7896793850771C1671385C7D1B3
:103090002D35AA87B5EFED35032684FB8325C4FBC8
:1030A0001945EFE0AFCE896793850771C167138536
:1030B000C7D12135AA87A9EF232C04FA91A80100D2
:1030C00013058008EFD08FCBAA8789CB8327C4FE56
:1030D0001387F7FF2326E4FEE344F0FE8327C4FEB4
:1030E0006357F0028327C4FB83C70700BE851945D9
:1030F000EFE06FC48327C4FB8507232EF4FA8327F0
:1031000084FB1387F7FF232CE4FAD5FB11A0010001
:10311000853D832784FB3E85B640264461618280DD
:10312000797106D622D40018232EA4FC232CB4FCDB
:103130008327C4FDB337F00093F7F70F3E871306DC
:103140002043C167938547E13A85EF00B069832743
:1031500084FD2326F4FE9307C4FE81463E86832524
:10316000C4FDB7670020138547E0EF10106B83277D
:10317000C4FE3E85B250225445618280797106D6E4
:1031800022D40018232EA4FC232CB4FC8327C4FDD6
:10319000B337F00093F7F70F3E8713063006C16789
:1031A000938587FB3A85EF00F063231704FEBDA0EB
:1031B00013058008EFD08FBCAA87B9E3032784FDED
:1031C000F54763F5E70279468325C4FD1945EFE02D
:1031D000EFBB8327C4FDF907232EF4FC832784FD6E
:1031E0008917232CF4FC231704FE0DA8032684FD65
:1031F0008325C4FD1945EFE06FB9232C04FC25A0FD
:103200008357E4FE85072317F4FE0357E4FE930774
:10321000300663E9E7000545EFD00F89832784FD79
:10322000C1FB11A00100832784FD3E85B2502254CA
:1032300045618280797106D622D40018232EA4FC21
:10324000232CB4FC8327C4FDB337F00093F7F70FAA
:103250003E871306700CC167938587FB3A85EF00A4
:103260007058832784FD2326F4FE9307C4FE81460D
:103270003E868325C4FDB7670020138507E2EF1063
:10328000D0598327C4FE3E85B250225445618280C6
:10329000797106D622D40018232EA4FC232CB4FC6A
:1032A000B287A30BF4FCB687231AF4FCBA87231960
:1032B000F4FC232604FE1307A0FA2380E1889387F9
:1032C00001880947A380E7008327C4FD93F7F70F20
:1032D000960713F7F70F832784FD99E3C14711A0E1
:1032E0008147D98F13F7F70F834774FDD98F13F7F1
:1032F000F70F938701882381E7009387018821478F
:10330000A381E70093870188035744FD2392E700D8
:1033100093870188035724FD2393E70003A7818146
:10332000A1451385018802970327C4FD8947630AD5
:10333000F7020327C4FD8D47630EF7020327C4FD80
:1033400085476313F704035744FD835724FDB307F0
:10335000F70213D7F7411D8BBA978D872326F4FE0A
:1033600025A0035744FD835724FDB307F702232606
:10337000F4FE19A8035744FD835724FDB307F70251
:1033800086072326F4FE0100832784FD81CB83A7D3
:1033900081818325C4FE032584FD82970100B250FC
:1033A000225445618280797106D622D40018232EDA
:1033B000A4FC231604FE9387818883D74700231635
:1033C000F4FE9387818883C7270093F7070291C78C
:1033D0008357C4FE86072316F4FE03A78181A14507
:1033E000138581880297A30704FEA5A08347F4FEF6
:1033F0000327C4FD8A07BA97DC4799CF83A681814A
:103400008347F4FE0327C4FD8A07BA97DC470357B6
:10341000C4FEBA853E8582968347F4FE0327C4FD29
:10342000A1078A07BA97DC4785C383A681818347B2
:10343000F4FE0327C4FDA1078A07BA97DC470357A8
:10344000C4FEBA853E8582968347F4FE8507A307AE
:10345000F4FE0347F4FE9D47E3FAE7F80100B2509B
:10346000225445618280011122CE00102326A4FE41
:103470002324B4FEB28736872313F4FEBA872312BF
:10348000F4FE1307A0FA2384E188938781880D470F
:10349000A380E700938781882147A381E700B7676E
:1034A00000209387C7E30327C4FE98C7B7670020AF
:1034B000032784FE23AEE7E2B76700209387C7E3C4
:1034C000035764FE2392E700B76700209387C7E3A2
:1034D000035744FE2393E700010072440561828094
:1034E000411106C622C40008B76700209387C7E3CE
:1034F0009C47B337F00093F7F70F3E87130680170A
:10350000C1679385C7FF3A85EF00D02DB7670020CC
:103510009387C7E38847B767002083A5C7E39387EE
:10352000818883C72700BD8B13F6F70FB76700208C
:103530009387C7E383D64700B76700209387C7E325
:1035400083D767003E87EFF0BFD49387818883C716
:103550002700BD8B91C7B76700201385C7E3A1354E
:103560000100B240224441018280011122CE0010AC
:103570002326A4FE2324B4FE832784FE3E857244C2
:1035800005618280011122CE00102326A4FE23248F
:10359000B4FE81473E85724405618280011122CECE
:1035A00000102326A4FE0327C4FE954763E4E70A20
:1035B0008327C4FE13972700C16793878723BA9791
:1035C0009C43828737470000130707ED23ACE18057
:1035D000374700001307A7EF23AEE180A5A83737D0
:1035E00000001307C71723ACE1803737000013072B
:1035F000472323AEE180B9A837270000130767E609
:1036000023ACE180372700001307E7F123AEE18008
:1036100091A0373700001307E7F923ACE180373773
:1036200000001307071223AEE1802DA037370000FA
:10363000130747CB23ACE18037370000130747DE81
:1036400023AEE18001A837270000130787D823ACF9
:10365000E18001000100724405618280411122C6AF
:103660000008B71702409843B717024013671700C6
:1036700098C3B7170240D443B71702403707FFF883
:10368000758FD8C3B71702409443B7170240370766
:10369000F7FE7D17758F98C3B71702409443B7178D
:1036A00002403707FCFF7D17758F98C3B71702409C
:1036B000D443B7170240370781FF7D17758FD8C3F2
:1036C000B717024037079F0098C7010032444101F5
:1036D0008280797106D622D40018232EA4FCBD3F27
:1036E000232604FE232404FEB71702409443B71791
:1036F00002404167558F98C3B71702409843B707F8
:103700000200F98F2324F4FE8327C4FE85072326B5
:10371000F4FE832784FE91E70327C4FE8567E31D3B
:10372000F7FCB71702409843B7070200F98F89C723
:1037300085472324F4FE19A0232404FE032784FED6
:1037400085476312F71637170240B71702405843F0
:10375000D8C337170240B71702405843D8C33717AA
:103760000240B71702405843D8C3B7170240D443AA
:10377000B71702403707C1FF7D17758FD8C30327DE
:10378000C4FDB747950893870740631BF700B71739
:103790000240D443B71702404167558FD8C355A89C
:1037A0000327C4FDB7172707938707E0631CF700BB
:1037B000B7170240D443B717024037073900558F77
:1037C000D8C341A80327C4FDB7E7B805938707808E
:1037D000631CF700B7170240D443B71702403707FE
:1037E0002900558FD8C3B5A00327C4FDB7A74A0445
:1037F00093870720631CF700B7170240D443B7171D
:10380000024037071D00558FD8C3A1A00327C4FD70
:10381000B777DC02938707C0631CF700B717024035
:10382000D443B717024037071100558FD8C315A0EE
:103830000327C4FDB7376E0193870760631BF7004A
:10384000B7170240D443B717024037070500558F1A
:10385000D8C3B71702409443B71702403707000197
:10386000558F98C30100B71702409843B70700026D
:10387000F98FF5DBB7170240D843B7170240719BA9
:10388000D8C3B7170240D843B717024013672700C1
:10389000D8C30100B7170240DC4313F7C700A147A4
:1038A000E31AF7FE11A001A0B250225445618280B4
:1038B000011106CE22CC00102326A4FE0327C4FE4D
:1038C00023A0E182EFF09FD90325C4FE1935EF2034
:1038D000207D0100F240624405618280411122C6D0
:1038E000000801000100324441018280011106CE2E
:1038F00022CC0010232604FE232404FE232604FEEB
:1039000025A0232404FE39A0D13F832784FE850708
:103910002324F4FE032784FEC167E367F7FE8327B1
:10392000C4FE85072326F4FE0327C4FE9307F00F89
:10393000E3F9E7FC0100F240624405618280411135
:1039400022C600080100324441018280011106CEE6
:1039500022CC00102326A4FE8325C4FE0945EFD007
:103960003FC90100F240624405618280130101D920
:10397000232611262324812623229126801C232EF0
:10398000A4D8232CB4D8232AC4D82328D4D82315C8
:1039900004FE231404FE231304FE231204FE231149
:1039A00004FE032584D9EF90C06EAA87C207C187A1
:1039B0002313F4FEB767002083D747EE99C7B76794
:1039C0000020938747EE9C4B829783C7118993F71A
:1039D000F70F6385074EB767002083D747EE6389EB
:1039E0000746B7670020938747EED447835724FEE6
:1039F00013970701418793170701C1838507C20702
:103A0000C183C207C1872311F4FE93170701C18345
:103A10000326C4D9BE8501458296832784D92326EF
:103A2000F4FE032584D9EF90C066AA87C207C18738
:103A30002313F4FEB7670020938747EE83D7270050
:103A40003E87B7670020938747EE83C76700B34779
:103A5000F702C207C1872312F4FE01008327C4FEC8
:103A6000138717002326E4FE83870700E5FB231452
:103A700004FEA1A88327C4FEFD172326F4FE832796
:103A8000C4FE038707009307F002630AF700832749
:103A9000C4FE038707009307C005631BF700835725
:103AA00084FEC207C1838507C207C1832314F4FEC5
:103AB000835764FEC207C187C207C183FD17C207CF
:103AC000C183C207C1872313F4FE835784FE139773
:103AD00007014183854763E8E700835764FEC20717
:103AE000C187E3D907F8835764FEC207C18763C261
:103AF00007028327C4FE85072326F4FE130704EE7E
:103B00000326C4FEC167938507043A85EF900054ED
:103B10001DA8835784FEC207C18381EF130704EEFB
:103B20000326C4FEC1679385C7043A85EF9000520F
:103B300019A8130704EE0326C4FEC1679385070482
:103B40003A85EF90A050231504FE05A2231404FE2D
:103B500059A0930704EE3E85EF90A0532A87835720
:103B600084FEC207C183BE868357A4FEC207C183F9
:103B70003E86835744FEC207C187B307F602B69755
:103B80006367F706835784FEC207C1833E87835766
:103B9000A4FEC207C183BE86835744FEC207C18705
:103BA000B387F602BA97035784FE42074183BA8669
:103BB000130704FFBA97038707EF930704FFB6972D
:103BC0002388E7EA835784FEC207C1838507C207BB
:103BD000C1832314F4FE835784FEC207C1833E874A
:103BE000835744FEC207C187E345F7F611A00100E1
:103BF000835784FEC207C183130704FFBA97238843
:103C000007EAB7670020938747EE03A8C700B767A6
:103C10000020938747EE83C77700139707014183FE
:103C2000835724FE93960701C18693970601C183AB
:103C30008507C207C183C207C1872311F4FE93978A
:103C40000601C183B307F702C207C183130704EA61
:103C50003A86BE85014502988357A4FEC207C183F8
:103C60008507C207C1832315F4FE8357A4FEC2074C
:103C7000C183BE84930704EE3E85EF9080412A877E
:103C8000835744FEC207C187B357F7028507E3EFA6
:103C9000F4EA130704EE032644D9C1679385C705E8
:103CA0003A85EF90A03AB7670020938747EE03A8C4
:103CB000C700B7670020938747EE83C77700139745
:103CC00007014183835724FE93960701C18693978A
:103CD0000601C1838507C207C183C207C1872311BB
:103CE000F4FE93970601C183B307F702C207C183AD
:103CF000130704EE3A86BE8501450298832704D94E
:103D0000638E071A231504FE05A2231404FE59A08E
:103D1000032504D9EF90E0372A87835784FEC20732
:103D2000C183BE868357A4FEC207C1833E868357E4
:103D300044FEC207C187B307F602B6976368F70669
:103D4000835784FEC207C1833E878357A4FEC20700
:103D5000C183BE86835744FEC207C187B387F6027C
:103D6000BA973E87832704D9BA97035784FE420740
:103D70004183BA8603870700930704FFB697238819
:103D8000E7EA835784FEC207C1838507C207C18360
:103D90002314F4FE835784FEC207C1833E878357F2
:103DA00044FEC207C187E345F7F611A0010083571F
:103DB00084FEC207C183130704FFBA97238807EA6A
:103DC000B7670020938747EE03A8C700B7670020B6
:103DD000938747EE83C77700139707014183835783
:103DE00024FE93960701C18693970601C183850738
:103DF000C207C183C207C1872311F4FE939706014E
:103E0000C183B307F702C207C183130704EA3A86E6
:103E1000BE85014502988357A4FEC207C18385076A
:103E2000C207C1832315F4FE8357A4FEC207C183D2
:103E3000BE84032504D9EF90C0252A87835744FE0A
:103E4000C207C187B357F7028507E3E0F4ECBDA0D2
:103E5000930704DA1306001081453E85EFC04FBA80
:103E6000B7670020938747EE9C470325C4D9829704
:103E7000832704D999CF130504DA032704D98326AD
:103E800044D9032684D9C16793858706EF90001C27
:103E900029A8130704DA832644D9032684D9C167E5
:103EA000938547083A85EF90601AB767002093879B
:103EB00047EE9847930704DA3E8502970100832076
:103EC000C1260324812683244126130101278280F1
:103ED000011106CE22CC00102326A4FE2324B4FE1A
:103EE000032684FE8325C4FE0945EFD02FEA8147CF
:103EF0003E85F240624405618280011106CE22CCEB
:103F000000102326A4FE2324B4FE930784FE8146DA
:103F10003E868325C4FEB7670020138587ECEF102B
:103F2000C00F832784FE3E85F24062440561828093
:103F3000411106C622C4000883C7118993F7F70F01
:103F400099CF938501890945EFD0CFF80546938530
:103F50000189B7670020138587ECEF00702D010001
:103F6000B240224441018280797106D622D40018E1
:103F7000232EA4FC232CB4FC232AC4FC232604FEF9
:103F8000A9A00100C167938787219C47930500047E
:103F90003E85EF40C02EAA87F5D7C167938787215A
:103FA0009C47BE86832784FD13871700232CE4FCDF
:103FB00083870700C207C183BE853685EF4040294D
:103FC0008327C4FE85072326F4FE0327C4FE832728
:103FD00044FDE348F7FA832744FD3E85B25022545E
:103FE00045618280011106CE22CC0010AA872324CD
:103FF000B4FE2322C4FEA307F4FE8347F4FEB1E31C
:1040000083C7418293F7F70F8DCF83C7218991C36F
:1040100001A083C72189850713F7F70F2389E1885A
:10402000EF204005EFF0BF918146032644FE832533
:1040300084FEC1671385C709EFF05F93EFF01F8B14
:10404000E5B70100F240624405618280011106CEAD
:1040500022CC0010AA872324B4FE2322C4FE2320EE
:10406000D4FEA307F4FE8347F4FE95E383C71189CA
:1040700093F7F70F91CF832684FE032604FE832552
:1040800044FEC1671385C70AEFF05F8E11A00100DF
:104090000100F240624405618280011122CE0010CD
:1040A0002326A4FE8327C4FE239007008327C4FE93
:1040B0007D572391E7008327C4FE7D572392E700B5
:1040C0008327C4FE7D572383E7008327C4FE7D57E3
:1040D000A383E7008327C4FE23A407008327C4FE2D
:1040E00023A607008327C4FE23A80700010072440B
:1040F00005618280011122CE00102326A4FE8327B1
:10410000C4FE03D70700B76700202392E7EE83279A
:10411000C4FE03D72700B7670020938747EE23919B
:10412000E7008327C4FE03D74700B76700209387C3
:1041300047EE2392E7008327C4FE03C76700B767F3
:104140000020938747EE2383E7008327C4FE03C73D
:104150007700B7670020938747EEA383E7008327A4
:10416000C4FE9847B7670020938747EE98C7832718
:10417000C4FED847B7670020938747EED8C7832788
:10418000C4FE984BB7670020938747EE98CB05474E
:10419000A388E1880100724405618280797106D6A6
:1041A00022D400189307C4FD3E85C53DB7470000E3
:1041B0009387C7942322F4FE9307C4FD3E851D3FD9
:1041C00089679386B70289671386A702F16793858B
:1041D00007200945EFD0EFD593060004B76700200C
:1041E000138687E88145B7670020138587ECEF10B9
:1041F000701D85450945EFD0AFC50100B25022546E
:1042000045618280011122CE00102326A4FE2324C2
:10421000B4FE8327C4FE03C7970083C6A700A20687
:10422000558F83C6B700C206558F83C7C700E20704
:10423000D98F3E87832784FE3E978327C4FE9375DC
:10424000F70F83C69700818A3686AE86D18EA38407
:10425000D7009356870093F5F60F83C6A700818A8F
:104260003686AE86D18E2385D7009356070193F507
:10427000F60F83C6B700818A3686AE86D18EA385B7
:10428000D7001356870103C7C700018BBA86328750
:10429000558F2386E70055A08327C4FE03C79700E8
:1042A00083C6A700A206558F83C6B700C206558FE6
:1042B00083C7C700E207D98F3E868327C4FE03C7A2
:1042C000570183C66701A206558F83C67701C206D0
:1042D000558F83C78701E207D98F3307F6408327BD
:1042E000C4FE9375F70F83C69700818A3686AE8623
:1042F000D18EA384D7009356870093F5F60F83C61B
:10430000A700818A3686AE86D18E2385D700935644
:10431000070193F5F60F83C6B700818A3686AE860D
:10432000D18EA385D7001356870103C7C700018B21
:10433000BA863287558F2386E7008327C4FE03C7DA
:10434000570183C66701A206558F83C67701C2064F
:10435000558F83C78701E207D98F3E868327C4FE26
:1043600003C7970083C6A700A206558F83C6B70070
:10437000C206558F83C7C700E207D98FE3FEC7F097
:104380000100724405618280011122CE00102326B3
:10439000A4FE2324B4FE8327C4FE03C7D70083C62C
:1043A000E700A206558F83C6F700C206558F83C764
:1043B0000701E207D98F3E87832784FE3E97832734
:1043C000C4FE9375F70F83C6D700818A3686AE8602
:1043D000D18EA386D7009356870093F5F60F83C638
:1043E000E700818A3686AE86D18E2387D700935622
:1043F000070193F5F60F83C6F700818A3686AE86ED
:10440000D18EA387D7001356870103C70701018BFD
:10441000BA863287558F2388E70055A08327C4FECC
:1044200003C7D70083C6E700A206558F83C6F700EF
:10443000C206558F83C70701E207D98F3E868327BF
:10444000C4FE03C7570183C66701A206558F83C602
:104450007701C206558F83C78701E207D98F3307DB
:10446000F6408327C4FE9375F70F83C6D700818A71
:104470003686AE86D18EA386D7009356870093F5F5
:10448000F60F83C6E700818A3686AE86D18E2387F3
:10449000D7009356070193F5F60F83C6F700818A7C
:1044A0003686AE86D18EA387D7001356870103C701
:1044B0000701018BBA863287558F2388E70083274F
:1044C000C4FE03C7570183C66701A206558F83C682
:1044D0007701C206558F83C78701E207D98F3E86D1
:1044E0008327C4FE03C7D70083C6E700A206558F03
:1044F00083C6F700C206558F83C70701E207D98F2D
:10450000E3FEC7F00100724405618280797106D62E
:1045100022D40018232EA4FC8327C4FDB337F00057
:1045200093F7F70F3E8713065005C1679385870BF6
:104530003A85EFF03FAB232604FE8327C4FD83C7F3
:10454000070093E7170013F7F70F8327C4FD2380B5
:10455000E7008327C4FD03C79700018BA384E7000E
:1045600003C7A700018B2385E70003C7B700018BB2
:10457000A385E70003C7C700018B2386E7008327D5
:10458000C4FD03C7D700018BA386E70003C7E7007C
:10459000018B2387E70003C7F700018BA387E700A0
:1045A00003C70701018B2388E7008327C4FD03C7E6
:1045B000570183C66701A206558F83C67701C206DD
:1045C000558F83C78701E207D98F3E878327C4FDB4
:1045D0009375F70F83C61701818A3686AE86D18E12
:1045E000A388D7009356870093F5F60F83C627015B
:1045F000818A3686AE86D18E2389D70093560701ED
:1046000093F5F60F83C63701818A3686AE86D18E42
:10461000A389D7001356870103C74701018BBA86C8
:104620003287558F238AE7008327C4FD03C717000D
:1046300083C62700A206558F83C63700C206558F52
:1046400083C74700E207D98F0547638DE70489C711
:1046500009476380E70AEDA08327C4FD03C757001D
:1046600083C66700A206558F83C67700C206558FA2
:1046700083C78700E207D98F3E858327C4FD03C720
:10468000570183C66701A206558F83C67701C2060C
:10469000558F83C78701E207D98F3E868145EFB0EA
:1046A0003FB679A88327C4FD03C7570083C66700B8
:1046B000A206558F83C67700C206558F83C7870031
:1046C000E207D98F3E858327C4FD03C7570183C600
:1046D0006701A206558F83C67701C206558F83C72F
:1046E0008701E207D98F86073E868145EFB05FB12B
:1046F00081A88327C4FD03C7570083C66700A206AD
:10470000558F83C67700C206558F83C78700E2079F
:10471000D98F3E858327C4FD03C7570183C6670130
:10472000A206558F83C67701C206558F83C78701BE
:10473000E207D98F8A073E868145EFB07FAC010042
:104740008327C4FD238007008327C4FE3E85B25023
:10475000225445618280011106CE22CC001023260E
:10476000A4FE8327C4FEB337F00093F7F70F3E870C
:1047700013066007C1679385870B3A85EFF09F8624
:104780008327C4FE03C7570183C66701A206558F5E
:1047900083C67701C206558F83C78701E207D98F89
:1047A0003E868327C4FE03C7170183C62701A206DE
:1047B000558F83C63701C206558F83C74701E2076D
:1047C000D98FB307F6403E85F2406244056182808E
:1047D000797106D622D40018232EA4FC232CB4FC15
:1047E0008327C4FDB337F00093F7F70F3E87130616
:1047F0004008C1679385870B3A85EFF0AFFE23260B
:1048000004FE8327C4FD83C70700958B93F7F70F3A
:1048100089C791472326F4FE29A48327C4FD83C7B3
:10482000070093E7470013F7F70F8327C4FD2380A2
:10483000E7008327C4FD03C7170183C62701A2062B
:10484000558F83C63701C206558F83C74701E207DC
:10485000D98F638A071A8327C4FD03C7170083C64D
:104860002700A206558F83C63700C206558F83C71F
:104870004700E207D98F05476380E70689C70947E4
:104880006386E70ADDA88327C4FD03C7570083C6F4
:104890006700A206558F83C67700C206558F83C76F
:1048A0008700E207D98F3E868327C4FD03C79700A0
:1048B00083C6A700A206558F83C6B700C206558FD0
:1048C00083C7C700E207D98FB297032784FD137708
:1048D000F70F2380E70055A08327C4FD03C75700C7
:1048E00083C66700A206558F83C67700C206558F20
:1048F00083C78700E207D98F3E868327C4FD03C79D
:10490000970083C6A700A206558F83C6B700C206CC
:10491000558F83C7C700E207D98F8607B297032751
:1049200084FD420741832390E70081A88327C4FDCB
:1049300003C7570083C66700A206558F83C677005A
:10494000C206558F83C78700E207D98F3E8683272B
:10495000C4FD03C7970083C6A700A206558F83C670
:10496000B700C206558F83C7C700E207D98F8A07F1
:10497000B297032784FD98C3010085450325C4FD34
:10498000EFF05F888327C4FD03C7170183C62701A3
:10499000A206558F83C63701C206558F83C74701CC
:1049A000E207D98F1387F7FF8327C4FD9375F70FAD
:1049B00083C61701818A3686AE86D18EA388D7003A
:1049C0009356870093F5F60F83C62701818A3686B2
:1049D000AE86D18E2389D7009356070193F5F60F43
:1049E00083C63701818A3686AE86D18EA389D700E9
:1049F0001356870103C74701018BBA863287558F4B
:104A0000238AE70021A095472326F4FE8327C4FDCF
:104A100083C70700ED9B13F7F70F8327C4FD23809F
:104A2000E7008327C4FE3E85B25022544561828050
:104A3000797106D622D40018232EA4FC232CB4FCB2
:104A4000232AC4FC8327C4FDB337F00093F7F70F84
:104A50003E871306000BC1679385870B3A85EFF0FD
:104A60006FD8232604FE232404FE832784FD89E7D0
:104A70008D472326F4FE59AB8327C4FD83C7070067
:104A8000958B93F7F70F89C791472326F4FEBDABAB
:104A90008327C4FD83C7070093E7470013F7F70F89
:104AA0008327C4FD2380E7008327C4FD03C71701C4
:104AB00083C62701A206558F83C63701C206558FCC
:104AC00083C74701E207D98F3E87832744FD63618F
:104AD000F7528327C4FD03C7570183C66701A206A7
:104AE000558F83C67701C206558F83C78701E207BA
:104AF000D98F3E868327C4FD03C7970083C6A700CE
:104B0000A206558F83C6B700C206558F83C7C7005C
:104B1000E207D98FB307F6402324F4FE032744FDB0
:104B2000832784FE63F3E72E8327C4FD03C71700A2
:104B300083C62700A206558F83C63700C206558F4D
:104B400083C74700E207D98F05476385E70E89C70A
:104B500009476386E71C11A98327C4FD03C75700D3
:104B600083C66700A206558F83C67700C206558F9D
:104B700083C78700E207D98F3E868327C4FD03C71A
:104B8000970083C6A700A206558F83C6B700C2064A
:104B9000558F83C7C700E207D98FB297032684FEDB
:104BA000832584FD3E85EF705000832584FE032518
:104BB000C4FDEFF02FE58327C4FD03C7570083C66C
:104BC0006700A206558F83C67700C206558F83C73C
:104BD0008700E207D98F3E868327C4FD03C797006D
:104BE00083C6A700A206558F83C6B700C206558F9D
:104BF00083C7C700E207D98FB306F600032784FDF9
:104C0000832784FEB305F700032744FD832784FE32
:104C1000B307F7403E863685EF702079032744FDC1
:104C2000832784FEB307F740BE850325C4FDEFF05C
:104C30006FDD25AE8327C4FD03C7570083C6670019
:104C4000A206558F83C67700C206558F83C787009B
:104C5000E207D98F3E868327C4FD03C7970083C62A
:104C6000A700A206558F83C6B700C206558F83C71B
:104C7000C700E207D98F86073307F600832784FE33
:104C800086073E86832584FD3A85EF700072832572
:104C900084FE0325C4FDEFF0EFD68327C4FD03C7D0
:104CA000570083C66700A206558F83C67700C206E9
:104CB000558F83C78700E207D98F3E868327C4FDBF
:104CC00003C7970083C6A700A206558F83C6B70007
:104CD000C206558F83C7C700E207D98F8607B30680
:104CE000F600832784FE8607032784FDB305F700BB
:104CF000032744FD832784FEB307F74086073E86DB
:104D00003685EF70806A032744FD832784FEB3074E
:104D1000F740BE850325C4FDEFF0CFCEB9A48327AD
:104D2000C4FD03C7570083C66700A206558F83C61C
:104D30007700C206558F83C78700E207D98F3E866A
:104D40008327C4FD03C7970083C6A700A206558F1B
:104D500083C6B700C206558F83C7C700E207D98F45
:104D60008A073307F600832784FE8A073E86832559
:104D700084FD3A85EF706063832584FE0325C4FDBE
:104D8000EFF04FC88327C4FD03C7570083C66700F1
:104D9000A206558F83C67700C206558F83C787004A
:104DA000E207D98F3E868327C4FD03C7970083C6D9
:104DB000A700A206558F83C6B700C206558F83C7CA
:104DC000C700E207D98F8A07B306F600832784FE5F
:104DD0008A07032784FDB305F700032744FD8327D3
:104DE00084FEB307F7408A073E863685EF70E05BA6
:104DF000032744FD832784FEB307F740BE850325C0
:104E0000C4FDEFF02FC001008DA28327C4FD03C7AE
:104E1000170083C62700A206558F83C63700C20637
:104E2000558F83C74700E207D98F05476387E70699
:104E300089C709476387E70C0DAA8327C4FD03C709
:104E4000570083C66700A206558F83C67700C20647
:104E5000558F83C78700E207D98F3E868327C4FD1D
:104E600003C7970083C6A700A206558F83C6B70065
:104E7000C206558F83C7C700E207D98FB2970326B2
:104E800044FD832584FD3E85EF702052832544FD3B
:104E90000325C4FDEFF00FB7C9A88327C4FD03C7DE
:104EA000570083C66700A206558F83C67700C206E7
:104EB000558F83C78700E207D98F3E868327C4FDBD
:104EC00003C7970083C6A700A206558F83C6B70005
:104ED000C206558F83C7C700E207D98F86073307FD
:104EE000F600832744FD86073E86832584FD3A85A8
:104EF000EF70A04B832544FD0325C4FDEFF08FB078
:104F0000ADA08327C4FD03C7570083C66700A20670
:104F1000558F83C67700C206558F83C78700E20787
:104F2000D98F3E868327C4FD03C7970083C6A70099
:104F3000A206558F83C6B700C206558F83C7C70028
:104F4000E207D98F8A073307F600832744FD8A07D3
:104F50003E86832584FD3A85EF702045832544FDF8
:104F60000325C4FDEFF00FAA01008327C4FD03C78A
:104F7000170183C62701A206558F83C63701C206D3
:104F8000558F83C74701E207D98F3E87832744FDAA
:104F90001D8F8327C4FD9375F70F83C61701818A80
:104FA0003686AE86D18EA388D7009356870093F5B8
:104FB000F60F83C62701818A3686AE86D18E238975
:104FC000D7009356070193F5F60F83C63701818A00
:104FD0003686AE86D18EA389D7001356870103C7C4
:104FE0004701018BBA863287558F238AE70021A0BB
:104FF00095472326F4FE8327C4FD83C70700ED9B56
:1050000013F7F70F8327C4FD2380E7008327C4FE2F
:105010003E85B250225445618280797106D622D4F1
:105020000018232EA4FC232CB4FC232AC4FC232820
:10503000D4FC8327C4FDB337F00093F7F70F3E8706
:1050400013061016C1679385870B3A85EFE09FF929
:10505000832744FDB337F00093F7F70F3E8713061D
:105060002016C1679385870B3A85EFE0BFF72326AB
:1050700004FE232404FE232204FE832784FD89E703
:105080008D472326F4FEA9A18327C4FD83C707000B
:105090008D8B93F7F70F91CB832744FD032744FEB5
:1050A00098C399472326F4FE21A30325C4FDEFF0FE
:1050B0008FEA2322A4FE832744FD9C43032744FE5A
:1050C0006379F702832744FD032744FE98C39D4775
:1050D0002326F4FE832744FE89EF8327C4FD83C77C
:1050E0000700DD9B13F7F70F8327C4FD2380E7003C
:1050F000C1A18327C4FD83C7070093E7870013F787
:10510000F70F8327C4FD2380E7008327C4FD03C76F
:10511000570183C66701A206558F83C67701C20671
:10512000558F83C78701E207D98F3E868327C4FD49
:1051300003C7D70083C6E700A206558F83C6F700D2
:10514000C206558F83C70701E207D98FB307F64020
:105150002324F4FE832744FD9C43032784FE6366D7
:10516000F7148327C4FD03C7170083C62700A206D0
:10517000558F83C63700C206558F83C74700E207A5
:10518000D98F05476384E70689C70947638FE70A14
:105190002DA68327C4FD03C7570083C66700A20658
:1051A000558F83C67700C206558F83C78700E207F5
:1051B000D98F3E868327C4FD03C7D70083C6E70087
:1051C000A206558F83C6F700C206558F83C7070115
:1051D000E207D98F3307F600832744FD9C433E86C0
:1051E000BA85032584FDEF70401CC1AC8327C4FD44
:1051F00003C7570083C66700A206558F83C6770092
:10520000C206558F83C78700E207D98F3E86832762
:10521000C4FD03C7D70083C6E700A206558F83C627
:10522000F700C206558F83C70701E207D98F8607AB
:105230003307F600832744FD9C4386073E86BA85E4
:10524000032584FDEF7060168DAC8327C4FD03C772
:10525000570083C66700A206558F83C67700C20633
:10526000558F83C78700E207D98F3E868327C4FD09
:1052700003C7D70083C6E700A206558F83C6F70091
:10528000C206558F83C70701E207D98F8A07330704
:10529000F600832744FD9C438A073E86BA85032592
:1052A00084FDEF708010010009AC8327C4FD03C7A3
:1052B000170083C62700A206558F83C63700C20693
:1052C000558F83C74700E207D98F05476383E70AF5
:1052D00089C709476381E714CDA28327C4FD03C7AB
:1052E000570083C66700A206558F83C67700C206A3
:1052F000558F83C78700E207D98F3E868327C4FD79
:1053000003C7D70083C6E700A206558F83C6F70000
:10531000C206558F83C70701E207D98FB2970326CC
:1053200084FEBE85032584FDEF702008032784FDDD
:10533000832784FE3305F7008327C4FD03C7570086
:1053400083C66700A206558F83C67700C206558FB5
:1053500083C78700E207D98FBE86832744FD984321
:10536000832784FEB307F7403E86B685EF70E003DF
:10537000A9A28327C4FD03C7570083C66700A206FE
:10538000558F83C67700C206558F83C78700E20713
:10539000D98F3E868327C4FD03C7D70083C6E700A5
:1053A000A206558F83C6F700C206558F83C7070133
:1053B000E207D98F86073307F600832784FE860726
:1053C0003E86BA85032584FDEF60307E832784FE08
:1053D0008607032784FD3305F7008327C4FD03C731
:1053E000570083C66700A206558F83C67700C206A2
:1053F000558F83C78700E207D98FBE86832744FD78
:105400009843832784FEB307F74086073E86B68518
:10541000EF60B0795DA08327C4FD03C7570083C642
:105420006700A206558F83C67700C206558F83C7D3
:105430008700E207D98F3E868327C4FD03C7D700C4
:1054400083C6E700A206558F83C6F700C206558FB4
:1054500083C70701E207D98F8A073307F60083273E
:1054600084FE8A073E86BA85032584FDEF60F073CB
:10547000832784FE8A07032784FD3305F7008327EB
:10548000C4FD03C7570083C66700A206558F83C6B5
:105490007700C206558F83C78700E207D98FBE8683
:1054A000832744FD9843832784FEB307F7408A0788
:1054B0003E86B685EF60706F01008327C4FD83C709
:1054C0000700DD9B13F7F70F8327C4FD2380E70058
:1054D000832704FDF1EF8327C4FD03C70700AD4711
:1054E0006316F70089472326F4FED9A08327C4FD5D
:1054F00083C7070093E7270013F7F70F8327C4FD3F
:105500002380E700832744FD9C43BE850325C4FD1B
:10551000EFE09FE78327C4FD03C7170183C6270178
:10552000A206558F83C63701C206558F83C7470130
:10553000E207D98F3E87832744FD9C433E9783270C
:10554000C4FD9375F70F83C61701818A3686AE8630
:10555000D18EA388D7009356870093F5F60F83C6A4
:105560002701818A3686AE86D18E2389D70093564D
:10557000070193F5F60F83C63701818A3686AE861A
:10558000D18EA389D7001356870103C74701018B2A
:10559000BA863287558F238AE7008327C4FD83C7E5
:1055A0000700F59B13F7F70F8327C4FD2380E7005F
:1055B0008327C4FE3E85B2502254456182807971B2
:1055C00006D622D40018232EA4FC232CB4FC232AB4
:1055D000C4FC2328D4FC8327C4FDB337F00093F721
:1055E000F70F3E871306401CC1679385870B3A85EA
:1055F000EFE05F9F832744FDB337F00093F7F70F89
:105600003E871306501CC1679385870B3A85EFE0F0
:105610007F9D232604FE232404FE232204FE8327E9
:1056200084FD89E78D472326F4FEA5A38327C4FDC7
:1056300083C707009D8B93F7F70F91CB832744FD1A
:10564000032744FE98C399472326F4FEADA3032500
:10565000C4FDEFF04F902322A4FE832744FD9C431A
:10566000032744FE6379F702832744FD032744FEA2
:1056700098C39D472326F4FE832744FE89EF8327A2
:10568000C4FD83C70700DD9B13F7F70F8327C4FD15
:105690002380E7000DA38327C4FD83C7070093E79A
:1056A000870013F7F70F8327C4FD2380E7008327C4
:1056B000C4FD03C7970083C6A700A206558F83C603
:1056C000B700C206558F83C7C700E207D98F3E8651
:1056D0008327C4FD03C7D70083C6E700A206558F02
:1056E00083C6F700C206558F83C70701E207D98F2B
:1056F00063E8C7028327C4FD03C7970083C6A700DA
:10570000A206558F83C6B700C206558F83C7C70050
:10571000E207D98F3E87832744FD9C436368F716D1
:105720008327C4FD03C7170083C62700A206558F31
:1057300083C63700C206558F83C74700E207D98F5B
:105740000547638AE70689C70947638BE70C3DA1D4
:105750008327C4FD03C7570083C66700A206558F81
:1057600083C67700C206558F83C78700E207D98FAB
:105770003E868327C4FD03C7970083C6A700A20601
:10578000558F83C6B700C206558F83C7C700E2078F
:10579000D98F3E87832744FD9C43B307F7403307E7
:1057A000F600832744FD9C433E86BA85032584FD8D
:1057B000EF60B03FD9A88327C4FD03C7570083C655
:1057C0006700A206558F83C67700C206558F83C730
:1057D0008700E207D98F3E868327C4FD03C7970061
:1057E00083C6A700A206558F83C6B700C206558F91
:1057F00083C7C700E207D98F3E87832744FD9C43B8
:10580000B307F74086073307F600832744FD9C4320
:1058100086073E86BA85032584FDEF601039B5A062
:105820008327C4FD03C7570083C66700A206558FB0
:1058300083C67700C206558F83C78700E207D98FDA
:105840003E868327C4FD03C7970083C6A700A20630
:10585000558F83C6B700C206558F83C7C700E207BE
:10586000D98F3E87832744FD9C43B307F7408A07BF
:105870003307F600832744FD9C438A073E86BA859A
:10588000032584FDEF6070320100CDAC832744FD19
:1058900098438327C4FD83C6970003C6A70022064A
:1058A000D18E03C6B7004206D18E83C7C700E20778
:1058B000D58FB307F7402324F4FE8327C4FD03C725
:1058C000170083C62700A206558F83C63700C2067D
:1058D000558F83C74700E207D98F05476380E70EDE
:1058E00089C70947638CE71A51AC8327C4FD03C7F6
:1058F000570083C66700A206558F83C67700C2068D
:10590000558F83C78700E207D98F3E868327C4FD62
:1059100003C7570183C66701A206558F83C6770167
:10592000C206558F83C78701E207D98F3E87832739
:1059300084FEB307F740B297032684FEBE85032595
:1059400084FDEF609026032784FD832784FE3305C2
:10595000F7008327C4FD03C7570083C66700A2066C
:10596000558F83C67700C206558F83C78700E2072D
:10597000D98F3E868327C4FD03C7970083C6A7003F
:10598000A206558F83C6B700C206558F83C7C700CE
:10599000E207D98F3E87832744FD9C43B307F74036
:1059A000B306F600832744FD9843832784FEB3079C
:1059B000F7403E86B685EF60501FC9A28327C4FD1D
:1059C00003C7570083C66700A206558F83C67700BA
:1059D000C206558F83C78700E207D98F3E8683278B
:1059E000C4FD03C7570183C66701A206558F83C64E
:1059F0007701C206558F83C78701E207D98F3E879B
:105A0000832784FEB307F74086073307F600832712
:105A100084FE86073E86BA85032584FDEF60F01874
:105A2000832784FE8607032784FD3305F700832739
:105A3000C4FD03C7570083C66700A206558F83C6FF
:105A40007700C206558F83C78700E207D98F3E864D
:105A50008327C4FD03C7970083C6A700A206558FFE
:105A600083C6B700C206558F83C7C700E207D98F28
:105A70003E87832744FD9C43B307F7408607B30660
:105A8000F600832744FD9843832784FEB307F7403D
:105A900086073E86B685EF605011CDA08327C4FDF2
:105AA00003C7570083C66700A206558F83C67700D9
:105AB000C206558F83C78700E207D98F3E868327AA
:105AC000C4FD03C7570183C66701A206558F83C66D
:105AD0007701C206558F83C78701E207D98F3E87BA
